{
  "contractName": "ZombieFeeding",
  "abi": [
    {
      "anonymous": false,
      "inputs": [
        {
          "indexed": false,
          "internalType": "uint256",
          "name": "zombieId",
          "type": "uint256"
        },
        {
          "indexed": false,
          "internalType": "string",
          "name": "name",
          "type": "string"
        },
        {
          "indexed": false,
          "internalType": "uint256",
          "name": "dna",
          "type": "uint256"
        }
      ],
      "name": "NewZombie",
      "type": "event"
    },
    {
      "anonymous": false,
      "inputs": [
        {
          "indexed": true,
          "internalType": "address",
          "name": "previousOwner",
          "type": "address"
        },
        {
          "indexed": true,
          "internalType": "address",
          "name": "newOwner",
          "type": "address"
        }
      ],
      "name": "OwnershipTransferred",
      "type": "event"
    },
    {
      "inputs": [
        {
          "internalType": "string",
          "name": "_name",
          "type": "string"
        }
      ],
      "name": "createRandomZombie",
      "outputs": [],
      "stateMutability": "nonpayable",
      "type": "function"
    },
    {
      "inputs": [],
      "name": "isOwner",
      "outputs": [
        {
          "internalType": "bool",
          "name": "",
          "type": "bool"
        }
      ],
      "stateMutability": "view",
      "type": "function"
    },
    {
      "inputs": [],
      "name": "owner",
      "outputs": [
        {
          "internalType": "address",
          "name": "",
          "type": "address"
        }
      ],
      "stateMutability": "view",
      "type": "function"
    },
    {
      "inputs": [],
      "name": "renounceOwnership",
      "outputs": [],
      "stateMutability": "nonpayable",
      "type": "function"
    },
    {
      "inputs": [
        {
          "internalType": "address",
          "name": "newOwner",
          "type": "address"
        }
      ],
      "name": "transferOwnership",
      "outputs": [],
      "stateMutability": "nonpayable",
      "type": "function"
    },
    {
      "inputs": [
        {
          "internalType": "uint256",
          "name": "",
          "type": "uint256"
        }
      ],
      "name": "zombieToOwner",
      "outputs": [
        {
          "internalType": "address",
          "name": "",
          "type": "address"
        }
      ],
      "stateMutability": "view",
      "type": "function"
    },
    {
      "inputs": [
        {
          "internalType": "uint256",
          "name": "",
          "type": "uint256"
        }
      ],
      "name": "zombies",
      "outputs": [
        {
          "internalType": "string",
          "name": "name",
          "type": "string"
        },
        {
          "internalType": "uint256",
          "name": "dna",
          "type": "uint256"
        },
        {
          "internalType": "uint32",
          "name": "level",
          "type": "uint32"
        },
        {
          "internalType": "uint32",
          "name": "readyTime",
          "type": "uint32"
        },
        {
          "internalType": "uint16",
          "name": "winCount",
          "type": "uint16"
        },
        {
          "internalType": "uint16",
          "name": "lossCount",
          "type": "uint16"
        }
      ],
      "stateMutability": "view",
      "type": "function"
    },
    {
      "inputs": [
        {
          "internalType": "address",
          "name": "_address",
          "type": "address"
        }
      ],
      "name": "setKittyContractAddress",
      "outputs": [],
      "stateMutability": "nonpayable",
      "type": "function"
    },
    {
      "inputs": [
        {
          "internalType": "uint256",
          "name": "_zombieId",
          "type": "uint256"
        },
        {
          "internalType": "uint256",
          "name": "_kittyId",
          "type": "uint256"
        }
      ],
      "name": "feedOnKitty",
      "outputs": [],
      "stateMutability": "nonpayable",
      "type": "function"
    }
  ],
  "bytecode": "0x60806040526010600155600154600a6200001a919062000280565b600255620151806003553480156200003157600080fd5b50336000806101000a81548173ffffffffffffffffffffffffffffffffffffffff021916908373ffffffffffffffffffffffffffffffffffffffff16021790555060008054906101000a900473ffffffffffffffffffffffffffffffffffffffff1673ffffffffffffffffffffffffffffffffffffffff16600073ffffffffffffffffffffffffffffffffffffffff167f8be0079c531659141344cd1fd0a4f28419497f9722a3daafe3b4186f6b6457e060405160405180910390a3620002d1565b7f4e487b7100000000000000000000000000000000000000000000000000000000600052601160045260246000fd5b60008160011c9050919050565b6000808291508390505b60018511156200018157808604811115620001595762000158620000f3565b5b6001851615620001695780820291505b8081029050620001798562000122565b945062000139565b94509492505050565b6000826200019c57600190506200026f565b81620001ac57600090506200026f565b8160018114620001c55760028114620001d05762000206565b60019150506200026f565b60ff841115620001e557620001e4620000f3565b5b8360020a915084821115620001ff57620001fe620000f3565b5b506200026f565b5060208310610133831016604e8410600b8410161715620002405782820a9050838111156200023a5762000239620000f3565b5b6200026f565b6200024f84848460016200012f565b92509050818404811115620002695762000268620000f3565b5b81810290505b9392505050565b6000819050919050565b60006200028d8262000276565b91506200029a8362000276565b9250620002c97fffffffffffffffffffffffffffffffffffffffffffffffffffffffffffffffff84846200018a565b905092915050565b61174d80620002e16000396000f3fe608060405234801561001057600080fd5b50600436106100935760003560e01c8063715018a611610066578063715018a6146101355780637bff0a011461013f5780638da5cb5b1461015b5780638f32d59b14610179578063f2fde38b1461019757610093565b806317a7f4cc146100985780632052465e146100b4578063528b7b8f146100e95780635f4623f114610119575b600080fd5b6100b260048036038101906100ad9190610c6d565b6101b3565b005b6100ce60048036038101906100c99190610cad565b6102d1565b6040516100e096959493929190610db5565b60405180910390f35b61010360048036038101906100fe9190610cad565b6103e1565b6040516101109190610e5e565b60405180910390f35b610133600480360381019061012e9190610ea5565b610414565b005b61013d610469565b005b61015960048036038101906101549190611007565b610538565b005b6101636105b9565b6040516101709190610e5e565b60405180910390f35b6101816105e2565b60405161018e919061106b565b60405180910390f35b6101b160048036038101906101ac9190610ea5565b610639565b005b6000600760009054906101000a900473ffffffffffffffffffffffffffffffffffffffff1673ffffffffffffffffffffffffffffffffffffffff1663e98b7f4d836040518263ffffffff1660e01b81526004016102109190611086565b61014060405180830381865afa15801561022e573d6000803e3d6000fd5b505050506040513d601f19601f8201168201806040525081019061025291906110e2565b909192939495969798509091929394959697509091929394959650909192939495509091929394509091929350909192509091509050809150506102cc83826040518060400160405280600581526020017f6b69747479000000000000000000000000000000000000000000000000000000815250610656565b505050565b600481815481106102e157600080fd5b9060005260206000209060030201600091509050806000018054610304906111f0565b80601f0160208091040260200160405190810160405280929190818152602001828054610330906111f0565b801561037d5780601f106103525761010080835404028352916020019161037d565b820191906000526020600020905b81548152906001019060200180831161036057829003601f168201915b5050505050908060010154908060020160009054906101000a900463ffffffff16908060020160049054906101000a900463ffffffff16908060020160089054906101000a900461ffff169080600201600a9054906101000a900461ffff16905086565b60056020528060005260406000206000915054906101000a900473ffffffffffffffffffffffffffffffffffffffff1681565b61041c6105e2565b61042557600080fd5b80600760006101000a81548173ffffffffffffffffffffffffffffffffffffffff021916908373ffffffffffffffffffffffffffffffffffffffff16021790555050565b6104716105e2565b61047a57600080fd5b600073ffffffffffffffffffffffffffffffffffffffff1660008054906101000a900473ffffffffffffffffffffffffffffffffffffffff1673ffffffffffffffffffffffffffffffffffffffff167f8be0079c531659141344cd1fd0a4f28419497f9722a3daafe3b4186f6b6457e060405160405180910390a360008060006101000a81548173ffffffffffffffffffffffffffffffffffffffff021916908373ffffffffffffffffffffffffffffffffffffffff160217905550565b6000600660003373ffffffffffffffffffffffffffffffffffffffff1673ffffffffffffffffffffffffffffffffffffffff168152602001908152602001600020541461058457600080fd5b600061058f826107f2565b905060648161059e9190611250565b816105a991906112b0565b90506105b58282610837565b5050565b60008060009054906101000a900473ffffffffffffffffffffffffffffffffffffffff16905090565b60008060009054906101000a900473ffffffffffffffffffffffffffffffffffffffff1673ffffffffffffffffffffffffffffffffffffffff163373ffffffffffffffffffffffffffffffffffffffff1614905090565b6106416105e2565b61064a57600080fd5b61065381610aa7565b50565b826005600082815260200190815260200160002060009054906101000a900473ffffffffffffffffffffffffffffffffffffffff1673ffffffffffffffffffffffffffffffffffffffff163373ffffffffffffffffffffffffffffffffffffffff16146106c257600080fd5b6000600485815481106106d8576106d76112e4565b5b906000526020600020906003020190506106f181610b9d565b6106fa57600080fd5b600254846107089190611250565b93506000600285836001015461071e9190611313565b6107289190611347565b9050604051602001610739906113cf565b60405160208183030381529060405280519060200120846040516020016107609190611415565b60405160208183030381529060405280519060200120036107a257606360648261078a9190611250565b8261079591906112b0565b61079f9190611313565b90505b6107e16040518060400160405280600681526020017f4e6f4e616d65000000000000000000000000000000000000000000000000000081525082610837565b6107ea82610bc4565b505050505050565b600080826040516020016108069190611415565b6040516020818303038152906040528051906020012060001c90506002548161082f9190611250565b915050919050565b60046040518060c00160405280848152602001838152602001600163ffffffff1681526020016003544261086b9190611313565b63ffffffff168152602001600061ffff168152602001600061ffff16815250908060018154018082558091505060019003906000526020600020906003020160009091909190915060008201518160000190816108c891906115d8565b506020820151816001015560408201518160020160006101000a81548163ffffffff021916908363ffffffff16021790555060608201518160020160046101000a81548163ffffffff021916908363ffffffff16021790555060808201518160020160086101000a81548161ffff021916908361ffff16021790555060a082015181600201600a6101000a81548161ffff021916908361ffff16021790555050506000600160048054905061097d91906112b0565b9050336005600083815260200190815260200160002060006101000a81548173ffffffffffffffffffffffffffffffffffffffff021916908373ffffffffffffffffffffffffffffffffffffffff160217905550610a246001600660003373ffffffffffffffffffffffffffffffffffffffff1673ffffffffffffffffffffffffffffffffffffffff16815260200190815260200160002054610bf790919063ffffffff16565b600660003373ffffffffffffffffffffffffffffffffffffffff1673ffffffffffffffffffffffffffffffffffffffff168152602001908152602001600020819055507f88f026aacbbecc90c18411df4b1185fd8d9be2470f1962f192bf84a27d0704b7818484604051610a9a939291906116aa565b60405180910390a1505050565b600073ffffffffffffffffffffffffffffffffffffffff168173ffffffffffffffffffffffffffffffffffffffff1603610ae057600080fd5b8073ffffffffffffffffffffffffffffffffffffffff1660008054906101000a900473ffffffffffffffffffffffffffffffffffffffff1673ffffffffffffffffffffffffffffffffffffffff167f8be0079c531659141344cd1fd0a4f28419497f9722a3daafe3b4186f6b6457e060405160405180910390a3806000806101000a81548173ffffffffffffffffffffffffffffffffffffffff021916908373ffffffffffffffffffffffffffffffffffffffff16021790555050565b6000428260020160049054906101000a900463ffffffff1663ffffffff1611159050919050565b60035442610bd29190611313565b8160020160046101000a81548163ffffffff021916908363ffffffff16021790555050565b6000808284610c069190611313565b905083811015610c1957610c186116e8565b5b8091505092915050565b6000604051905090565b600080fd5b600080fd5b6000819050919050565b610c4a81610c37565b8114610c5557600080fd5b50565b600081359050610c6781610c41565b92915050565b60008060408385031215610c8457610c83610c2d565b5b6000610c9285828601610c58565b9250506020610ca385828601610c58565b9150509250929050565b600060208284031215610cc357610cc2610c2d565b5b6000610cd184828501610c58565b91505092915050565b600081519050919050565b600082825260208201905092915050565b60005b83811015610d14578082015181840152602081019050610cf9565b60008484015250505050565b6000601f19601f8301169050919050565b6000610d3c82610cda565b610d468185610ce5565b9350610d56818560208601610cf6565b610d5f81610d20565b840191505092915050565b610d7381610c37565b82525050565b600063ffffffff82169050919050565b610d9281610d79565b82525050565b600061ffff82169050919050565b610daf81610d98565b82525050565b600060c0820190508181036000830152610dcf8189610d31565b9050610dde6020830188610d6a565b610deb6040830187610d89565b610df86060830186610d89565b610e056080830185610da6565b610e1260a0830184610da6565b979650505050505050565b600073ffffffffffffffffffffffffffffffffffffffff82169050919050565b6000610e4882610e1d565b9050919050565b610e5881610e3d565b82525050565b6000602082019050610e736000830184610e4f565b92915050565b610e8281610e3d565b8114610e8d57600080fd5b50565b600081359050610e9f81610e79565b92915050565b600060208284031215610ebb57610eba610c2d565b5b6000610ec984828501610e90565b91505092915050565b600080fd5b600080fd5b7f4e487b7100000000000000000000000000000000000000000000000000000000600052604160045260246000fd5b610f1482610d20565b810181811067ffffffffffffffff82111715610f3357610f32610edc565b5b80604052505050565b6000610f46610c23565b9050610f528282610f0b565b919050565b600067ffffffffffffffff821115610f7257610f71610edc565b5b610f7b82610d20565b9050602081019050919050565b82818337600083830152505050565b6000610faa610fa584610f57565b610f3c565b905082815260208101848484011115610fc657610fc5610ed7565b5b610fd1848285610f88565b509392505050565b600082601f830112610fee57610fed610ed2565b5b8135610ffe848260208601610f97565b91505092915050565b60006020828403121561101d5761101c610c2d565b5b600082013567ffffffffffffffff81111561103b5761103a610c32565b5b61104784828501610fd9565b91505092915050565b60008115159050919050565b61106581611050565b82525050565b6000602082019050611080600083018461105c565b92915050565b600060208201905061109b6000830184610d6a565b92915050565b6110aa81611050565b81146110b557600080fd5b50565b6000815190506110c7816110a1565b92915050565b6000815190506110dc81610c41565b92915050565b6000806000806000806000806000806101408b8d03121561110657611105610c2d565b5b60006111148d828e016110b8565b9a505060206111258d828e016110b8565b99505060406111368d828e016110cd565b98505060606111478d828e016110cd565b97505060806111588d828e016110cd565b96505060a06111698d828e016110cd565b95505060c061117a8d828e016110cd565b94505060e061118b8d828e016110cd565b93505061010061119d8d828e016110cd565b9250506101206111af8d828e016110cd565b9150509295989b9194979a5092959850565b7f4e487b7100000000000000000000000000000000000000000000000000000000600052602260045260246000fd5b6000600282049050600182168061120857607f821691505b60208210810361121b5761121a6111c1565b5b50919050565b7f4e487b7100000000000000000000000000000000000000000000000000000000600052601260045260246000fd5b600061125b82610c37565b915061126683610c37565b92508261127657611275611221565b5b828206905092915050565b7f4e487b7100000000000000000000000000000000000000000000000000000000600052601160045260246000fd5b60006112bb82610c37565b91506112c683610c37565b92508282039050818111156112de576112dd611281565b5b92915050565b7f4e487b7100000000000000000000000000000000000000000000000000000000600052603260045260246000fd5b600061131e82610c37565b915061132983610c37565b925082820190508082111561134157611340611281565b5b92915050565b600061135282610c37565b915061135d83610c37565b92508261136d5761136c611221565b5b828204905092915050565b600081905092915050565b7f6b69747479000000000000000000000000000000000000000000000000000000600082015250565b60006113b9600583611378565b91506113c482611383565b600582019050919050565b60006113da826113ac565b9150819050919050565b60006113ef82610cda565b6113f98185611378565b9350611409818560208601610cf6565b80840191505092915050565b600061142182846113e4565b915081905092915050565b60008190508160005260206000209050919050565b60006020601f8301049050919050565b600082821b905092915050565b60006008830261148e7fffffffffffffffffffffffffffffffffffffffffffffffffffffffffffffffff82611451565b6114988683611451565b95508019841693508086168417925050509392505050565b6000819050919050565b60006114d56114d06114cb84610c37565b6114b0565b610c37565b9050919050565b6000819050919050565b6114ef836114ba565b6115036114fb826114dc565b84845461145e565b825550505050565b600090565b61151861150b565b6115238184846114e6565b505050565b5b818110156115475761153c600082611510565b600181019050611529565b5050565b601f82111561158c5761155d8161142c565b61156684611441565b81016020851015611575578190505b61158961158185611441565b830182611528565b50505b505050565b600082821c905092915050565b60006115af60001984600802611591565b1980831691505092915050565b60006115c8838361159e565b9150826002028217905092915050565b6115e182610cda565b67ffffffffffffffff8111156115fa576115f9610edc565b5b61160482546111f0565b61160f82828561154b565b600060209050601f8311600181146116425760008415611630578287015190505b61163a85826115bc565b8655506116a2565b601f1984166116508661142c565b60005b8281101561167857848901518255600182019150602085019450602081019050611653565b868310156116955784890151611691601f89168261159e565b8355505b6001600288020188555050505b505050505050565b60006060820190506116bf6000830186610d6a565b81810360208301526116d18185610d31565b90506116e06040830184610d6a565b949350505050565b7f4e487b7100000000000000000000000000000000000000000000000000000000600052600160045260246000fdfea264697066735822122024053ef770fad6d94aa754f501fb02dbd2116ef711a9ea4c1f569ca8fc4d6bce64736f6c63430008130033",
  "immutableReferences": {},
  "source": "\r\n// SPDX-License-Identifier: UNLICENSED\r\npragma solidity ^0.8.00;\r\n\r\nimport \"./zombiefactory.sol\";\r\n\r\nabstract contract KittyInterface {\r\n  function getKitty(uint256 _id) external view virtual returns (\r\n    bool isGestating,\r\n    bool isReady,\r\n    uint256 cooldownIndex,\r\n    uint256 nextActionAt,\r\n    uint256 siringWithId,\r\n    uint256 birthTime,\r\n    uint256 matronId,\r\n    uint256 sireId,\r\n    uint256 generation,\r\n    uint256 genes\r\n  );\r\n}\r\n\r\ncontract ZombieFeeding is ZombieFactory {\r\n\r\n  KittyInterface kittyContract;\r\n\r\n  modifier onlyOwnerOf(uint _zombieId) {\r\n    require(msg.sender == zombieToOwner[_zombieId]);\r\n    _;\r\n  }\r\n\r\n  function setKittyContractAddress(address _address) external onlyOwner {\r\n    kittyContract = KittyInterface(_address);\r\n  }\r\n\r\n  function _triggerCooldown(Zombie storage _zombie) internal {\r\n    _zombie.readyTime = uint32(block.timestamp + cooldownTime);\r\n  }\r\n\r\n  function _isReady(Zombie storage _zombie) internal view returns (bool) {\r\n      return (_zombie.readyTime <= block.timestamp);\r\n  }\r\n\r\n  function feedAndMultiply(uint _zombieId, uint _targetDna, string memory _species) internal onlyOwnerOf(_zombieId) {\r\n    Zombie storage myZombie = zombies[_zombieId];\r\n    require(_isReady(myZombie));\r\n    _targetDna = _targetDna % dnaModulus;\r\n    uint newDna = (myZombie.dna + _targetDna) / 2;\r\n    if (keccak256(abi.encodePacked(_species)) == keccak256(abi.encodePacked(\"kitty\"))) {\r\n      newDna = newDna - newDna % 100 + 99;\r\n    }\r\n    _createZombie(\"NoName\", newDna);\r\n    _triggerCooldown(myZombie);\r\n  }\r\n\r\n  function feedOnKitty(uint _zombieId, uint _kittyId) public {\r\n    uint kittyDna;\r\n    (,,,,,,,,,kittyDna) = kittyContract.getKitty(_kittyId);\r\n    feedAndMultiply(_zombieId, kittyDna, \"kitty\");\r\n  }\r\n}\r\n",
  "sourcePath": "D:\\suli\\CryptoZombies\\contracts\\zombiefeeding.sol",
  "compiler": {
    "name": "solc",
    "version": "0.8.19+commit.7dd6d404.Emscripten.clang"
  },
  "schemaVersion": "3.4.13",
  "updatedAt": "2023-04-21T10:29:17.705Z",
  "devdoc": {
    "kind": "dev",
    "methods": {
      "isOwner()": {
        "returns": {
          "_0": "true if `msg.sender` is the owner of the contract."
        }
      },
      "owner()": {
        "returns": {
          "_0": "the address of the owner."
        }
      },
      "renounceOwnership()": {
        "details": "Allows the current owner to relinquish control of the contract."
      },
      "transferOwnership(address)": {
        "details": "Allows the current owner to transfer control of the contract to a newOwner.",
        "params": {
          "newOwner": "The address to transfer ownership to."
        }
      }
    },
    "version": 1
  },
  "userdoc": {
    "kind": "user",
    "methods": {
      "renounceOwnership()": {
        "notice": "Renouncing to ownership will leave the contract without an owner. It will not be possible to call the functions with the `onlyOwner` modifier anymore."
      }
    },
    "version": 1
  }
}